:020000040000FA
:02000000FE2FD1
:100E7000F1007108831603139B001C141A08F0007C
:100E80007008F2007208442F0800F100472F831603
:100E900003139C184C2F4D2F472F4E2F71089B008A
:100EA00070089A001C158B1355309D00AA309D00C8
:100EB0009C148B171C119C1008000F30F300730852
:100EC000831603138604F030F3007308850583123C
:100ED00003138501F7016C2F83120313861C712FF6
:100EE000722F8A2F0330F3007308F000770845272C
:100EF0000130F3007308F7070330F5008A30F4007F
:100F00005530F300F30B822FF40B822FF50B822F59
:100F1000892F8A2F83120313061D8F2F902FA82F3E
:100F20000530F3007308F000770845270130F3001F
:100F30007308F7070330F5008A30F4005530F300EA
:100F4000F30BA02FF40BA02FF50BA02FA72FA82F8A
:100F500083120313861DAD2FAE2FC62F0730F3006B
:100F60007308F000770845270130F3007308F7078E
:100F70000330F5008A30F4005530F300F30BBE2F38
:100F8000F40BBE2FF50BBE2FC52FC62F03307706EF
:100F9000031DCB2FCC2FCE2FF701CE2F831203139F
:100FA000061CD32FD42F6C2FF60103307602031CBE
:100FB000DA2FDB2FDD2F6C2F6C2F7608382783126A
:100FC000031385000630F5001330F400AD30F30054
:100FD000F30BE82FF40BE82FF50BE82FEF2F013080
:100FE000F3007308F60703307602031CF82FF92F7D
:100FF000DD2F6C2F6C2F6C2F6C2F002883015D2F41
:02400E0018FF99
:00000001FF
