:020000040000FA
:02000000FE2FD1
:100F1000F0008A2F83160313981C8F2F902F8A2F8F
:100F2000912F70088312031399000800831603138E
:100F30001815193099001812831203139817831685
:100F400003138614061598160800962783160313B4
:100F500085018312031385011930F100710883168E
:100F600003138604F401B42F8312061CB82FB92F83
:100F7000CB2F0130F1007108F4070230F300453047
:100F8000F200A930F100F10BC32FF20BC32FF30BCA
:100F9000C32FCA2FCB2F83120313861DD02FD12F1F
:100FA000E12F0130F4020230F3004530F200A930A5
:100FB000F100F10BD92FF20BD92FF30BD92FE02F22
:100FC000E12F83120313061EE62FE72FF72F740875
:100FD00088270230F3004530F200A930F100F10B10
:100FE000EF2FF20BEF2FF30BEF2FF62FF72F7408E5
:100FF000831203138500B42FB42F00288301A52F7B
:02400E0018FF99
:00000001FF
