:020000040000FA
:02000000FE2FD1
:1007C400831203138E018F01023083120313BE00C0
:1007D400BE0BEA2BED2B8312031306160230831291
:1007E4000313BE00BE0BF42BF72B83120313061066
:1007F400FB2B861EFE2BFF2BFB2B1014012C861AC1
:10080400042C052C012C10104230A3006B30A200E4
:100814003330A1003330A0000E08F0000F08F100BF
:10082400F201F30100303325730883120313A70088
:100834007208A6007108A5007008A400F5258312AB
:1008440003132308BD002208BC002108BB002008B4
:10085400BA002C2C08008316031306128616831282
:1008640003130612F030CA004A08831603138505E1
:10087400831203138501901010129012412CE2236D
:10088400831203133D08CF003C08CE003B08CD0083
:100894003A08CC004F08A7004E08A6004D08A50052
:1008A4004C08A4004030A300A030A2000030A100F6
:1008B4000030A000F525831203132308C200220888
:1008C400C1002108C0002008BF009724831203132D
:1008D4003F08CA004A08D0007E2C01308500412C14
:1008E40003308500412C07308500412C0F308500F2
:1008F400412C8501412C412C5008CA00CB014B08E6
:10090400003A0319862C7B2C4A08013A03196F2CF0
:10091400033A0319722C013A0319752C073A031987
:10092400782C7B2C412C412C0028831203133F0884
:10093400C3004008C4004108C5004208C6000310B3
:10094400450D460DC7004708C9004908031DAB2CD7
:10095400AC2CB62C0030C2000030C1000030C00006
:100964000030BF00322D322D3F08C3004008C400C0
:100974004108C5004208C6001F300310C60CC50C50
:10098400C40CC30CFF3E031DBF2C4308C70047081B
:10099400C800C117FF30BF05FF30C005FF30C105D7
:1009A4000030C2059630C902C91FD92CDA2CFF2C9D
:1009B4004908803A973E0318E02CE12CEC2C0030D7
:1009C400C2000030C1000030C0000030BF00322D32
:1009D400322DEC2C01300310C20CC10CC00CBF0C26
:1009E400FF3E031DED2C0130C3004308C907031D5E
:1009F400FC2CFD2CEC2C222D222D20304902031C32
:100A0400042D052D1B2D0030C2000030C100003024
:100A1400C0000030BF00322D322D1B2D0130C30029
:100A24000310BF0DC00DC10DC20DC30B122D01303B
:100A3400C9024908031D1F2D202D102D222D222D02
:100A440048080319262D272D322DBF09C009C109D5
:100A5400C209BF0A0319C00A0319C10A0319C20A49
:100A64000800F80078080319382D392D4D2DF31F8F
:100A74003C2D3D2D4D2D7009FA007109FB007209C2
:100A8400FC007309FD00FA0A0319FB0A0319FC0AA6
:100A94000319FD0A552D7308FD007208FC00710846
:100AA400FB007008FA007308720471047004031DDB
:100AB4005C2D5D2D672D0030F3000030F200003016
:100AC400F1000030F000F42DF42D9630F400740899
:100AD400F9007A2D0130F4007408F907013003108D
:100AE400FD0CFC0CFB0CFA0CFF3E031D712D7A2D42
:100AF400FE307D05031D7F2D802D6C2D9D2D9D2D9C
:100B04000130F4007408F9070130FA0700300318C3
:100B14000130FB07003003180130FC0700300318D4
:100B24000130FD0701300310FD0CFC0CFB0CFA0C2A
:100B3400FF3E031D952DFF307D05031DA22DA32D22
:100B4400822DB12DB12D0130F9020130F4000310D2
:100B5400FA0DFB0DFC0DFD0DF40BA92DB12DFC1BA5
:100B6400B42DB52DBC2D023079020318BA2DBB2D3E
:100B7400A52DBC2D7918BF2DC02DC82DFF30FA0529
:100B8400FF30FB057F30FC05FF30FD050310F90C39
:100B94007908F400F501F601F70118300310F40D9B
:100BA400F50DF60DF70DFF3E031DD02D7408FA0464
:100BB4007508FB047608FC047708FD04780803191B
:100BC400E42DE52DEB2DF31FE82DE92DEB2DFD177D
:100BD400EB2D7D08F3007C08F2007B08F1007A0815
:100BE400F000F42D08008312031327088039A800AD
:100BF4002808B1002708A8002807A9002908B80078
:100C0400A61F052E062E082E3814082E38080319A0
:100C14000C2E0D2E1E2E380A031D112E122E1B2EE5
:100C24000030A7000030A6000030A5000030A4006A
:100C34001B2EA617A701272E0030A7000030A60000
:100C44000030A5000030A400272E23088039A80016
:100C54002808B1062308A8002807A9002908B90014
:100C6400A21F352E362E382E3914382E3908031982
:100C74003C2E3D2E4E2E390A031D412E422E4B2E64
:100C84000030A3000030A2000030A1000030A0001A
:100C94004B2EA217A301562E0030A3000030A20051
:100CA4000030A1000030A000230822042104200405
:100CB400031D5D2E5E2E782E0030A7000030A600A6
:100CC4000030A5000030A4008030A6047F30A704C3
:100CD4003108A8002808A7042708A3002608A200B2
:100CE4002508A1002408A000FD2FFD2F3808031DAE
:100CF4007C2E7D2E8F2E0030A7000030A600003001
:100D0400A5000030A4002708A3002608A200250897
:100D1400A1002408A000FD2FFD2F3908A800A90177
:100D2400A809A909A80A0319A90A38082807AA00C2
:100D340029080318290AAB002A087F3EB2002B08B1
:100D44000318013E003EB3002708B0002608AF0098
:100D54002508AE002408AD000030A7000030A6002E
:100D64000030A5000030A4000030B7000030B60009
:100D74000030B5000030B400B9010E2F3908031952
:100D8400C42EC52EE72E0130A8000310AD0DAE0D04
:100D9400AF0DB00DA80BC72E0130A8000310A40D91
:100DA400A50DA60DA70DA80BD02EB71FDA2EDB2E8E
:100DB400DD2E2414DD2E0130A8000310B40DB50D72
:100DC400B60DB70DA80BDF2EE72E23083002031D46
:100DD400F52E22082F02031DF52E21082E02031DD5
:100DE400F52E20082D02031CF82EF92E092F371793
:100DF4002008AD022108031C210FAE022208031CA7
:100E0400220FAF022308031C230FB002092F013065
:100E1400A8002808B9070E2F1A303902031C132F13
:100E2400142FC02E152F30082F042E042D0403195F
:100E34001C2F1D2F3F2F34143F2F3F2F0130A800AC
:100E44000310A40DA50DA60DA70DA80B222FB71FE7
:100E54002C2F2D2F2F2F24142F2F0130A8000310F7
:100E6400B40DB50DB60DB70DA80B312FFF30B20779
:100E74000318B30AFF30B3073F2FA61F422F432F97
:100E8400202F442FB901B71F482F492F692FFF3056
:100E94003405A800FF303505A900FF303605AA0047
:100EA4007F303705AB002B082A04290428040319D2
:100EB4005C2F5D2F602FB901B90A692F241C632FA1
:100EC400642F692FB901B90A692F692F692F39086D
:100ED40003196D2F6E2FA12F0130A40700300318C2
:100EE4000130A507003003180130A60700300318AD
:100EF4000130A707271C7F2F802FA12F2408A800CB
:100F04002508A9002608AA002708AB000130AC0078
:100F14002B0DAB0CAA0CA90CA80CAC0B8A2F2B081C
:100F2400A7002A08A6002908A5002808A400013063
:100F3400B2070318B30A0030B307A12FA12F330857
:100F4400803AFF0080307F02031DAA2FFF30320257
:100F5400031CAD2FAE2FBD2FFF3083120313B2003D
:100F64000030B3000030A7000030A6000030A50018
:100F74000030A400BD2F831203133308803AFF000E
:100F840080307F02031DC82F013032020318CB2F9B
:100F9400CC2FD92F83120313B201B3010030A70061
:100FA4000030A6000030A5000030A400B101831277
:100FB40003133208A8002808B800381CE22FE32FD6
:100FC400E52FA617E92F7F30A8002808A6053808C2
:100FD400A8000310280CA9002908A7003108A800BC
:100FE4002808A7042708A3002608A2002508A100B2
:0C0FF4002408A000FD2F080083012D2C14
:02400E0041FF70
:00000001FF
