:020000040000FA
:02000000EA2FE5
:100E60007E340C34B6349E34CC34DA34BE340E3492
:100E7000FE34DE34203084002B30F7000408F80004
:100E80000A30F9007708840083130008FA00F70A93
:100E9000780884007A088000F80AF90B422F831240
:100EA0000313AA0183160313860183120313860119
:100EB000592F831203132A08203E8400831300084D
:100EC00086000130F7007708AA070A30F0000030EA
:100ED000F1002A08F700F8017708F2007808F3001B
:100EE00087277008F900790883120313AA000630D7
:100EF000F9001330F800AD30F700F70B7D2FF80B39
:100F00007D2FF90B7D2F842F592F592F0028F601A3
:100F1000F31F8B2F8C2F942FF209F309F20A031978
:100F2000F30AF601F60A942FF11F972F982F9E2FA0
:100F3000F009F109F00A0319F10A9E2F70087104F3
:100F40000319A32FA42FD92FF501F50AB32F0130D0
:100F50000310F00DF10DFF3E031DA82F0130F4002A
:100F60007408F507B32FF11FB62FB72FA72FB92F8E
:100F7000B92F71087302031DBF2F70087202031C82
:100F8000C22FC32FCA2F7008F2027108031CF3038B
:100F9000F302CA2F01300310F10CF00CFF3E031DC9
:100FA000CB2F0130F502031DD62FD72FB92FD92F04
:100FB000D92F76080319DD2FDE2FE42FF209F3096C
:100FC000F20A0319F30AE42F7308F1007208F00023
:100FD000E92F08003027AB003127AC003227AD00E5
:100FE0003327AE003427AF003527B0003627B100D5
:100FF0003727B2003827B3003927B40083013A2FCE
:02400E0041FF70
:00000001FF
