:020000040000FA
:02000000FC2FD3
:100F1600043071020030031970020318932F942FC6
:100F2600AC2F7018972F9B2F8312031317169E2F23
:100F360083120313171297127108F3007008F20058
:100F46000310F30CF20C0310F30CF20C720895006C
:100F5600AC2F0800F43083160313860083120313A4
:100F6600061486108611171597157C308316031301
:100F7600920083120313121492101215C22F8312B9
:100F86000313861FC72FC82FCD2F013086060230C8
:100F96008606CD2F061FD02FD12FD52FF001F101B8
:100FA6008B27D52F83120313861EDA2FDB2FE12F13
:100FB600FA30F0000030F1008B27E12F8312031383
:100FC600061EE62FE72FED2F5E30F0000130F10010
:100FD6008B27ED2F83120313061DF22FF32FC22F3B
:100FE600F430F0000130F1008B27C22FC22FC22F40
:0A0FF6000028F001F1018301AD2F86
:02400E0018FF99
:00000001FF
