:020000040000FA
:020000000A28CC
:10000800FE00030EF1000A08F2000E280B28F30187
:1000180083012F28831203130C1C13281428282863
:100028000130F0007008F30714307306031D1D2813
:100038001E28222801308606F30122283C308F0032
:10004800B0308E000C10282872088A00710E8300C8
:10005800FE0E7E0E09008316031306108312031387
:100068000614831603130C140B178B173C308312DA
:1000780003138F00B0308E009010101290121014DD
:0400880044280A28D6
:02400E0041FF70
:00000001FF
