:020000040000FA
:020000000A28CC
:10000800FE00030EF1000A08F2007B280B28F70116
:1000180083010E28662083160313850183120313B8
:1000280085011930F40074088316031386041C280C
:100038008312061C2028212833280130F400740874
:10004800F7070230F6004530F500A930F400F40B4C
:100058002B28F50B2B28F60B2B2832283328831254
:100068000313861D3828392849280130F702023041
:10007800F6004530F500A930F400F40B4128F50BE3
:100088004128F60B41284828492883120313061EE5
:100098004E284F285F2877088E200230F60045301A
:1000A800F500A930F400F40B5728F50B5728F60B88
:1000B80057285E285F2877088312031385001C28B9
:1000C8001C280A28831603131815193099001812CA
:1000D80083120313981783160313861406159816AC
:1000E8008C160B178B17831203131816080083122C
:1000F80003138C1E8028812887281A08F0007008AE
:10010800F7008C12872872088A00710E8300FE0E91
:100118007E0E0900F300902883160313981C952877
:1001280096289028972873088312031399000800CB
:02400E0018FF99
:00000001FF
