:020000040000FA
:020000000A28CC
:10000800FE00030EF0000A08F10040280B288301C7
:100018000D28FC30F200720883160313850583123D
:10002800031385018316031306148B170B16011788
:100038001D288312031305140630F4001330F3004F
:10004800AD30F200F20B2628F30B2628F40B2628F5
:100058002D288312031305100630F4001330F30023
:10006800AD30F200F20B3628F30B3628F40B3628A5
:100078003D281D281D280A288B1C432844284A2867
:1000880002308312031385068B104A2871088A00F0
:0A009800700E8300FE0E7E0E0900BC
:02400E0041FF70
:00000001FF
