:020000040000FA
:02000000FE2FD1
:100F0200043075020030031974020318892F8A2FE6
:100F1200A22F74188D2F912F831203131716942F5B
:100F220083120313171297127508F1007408F00068
:100F32000310F10CF00C0310F10CF00C700895008A
:100F4200A22F080083120313171597158316031394
:100F520086117C3092008312031312149210121520
:100F6200B22FF401F501C62F81270130F4070318CF
:100F7200F50A0030F5070330F3009730F200F20B68
:100F8200C02FF30BC02FC52FC62F01307502F430CE
:100F920003197402031CCE2FCF2FB52FD02F82300E
:100FA200F300DD30F200F20BD42FF30BD42FD92F44
:100FB200EB2F81270130F4020030031CF503F50208
:100FC2000330F3009730F200F20BE52FF30BE52F1D
:100FD200EA2FEB2F74087504031DF02FF12FDA2F7F
:100FE200F22F8230F300DD30F200F20BF62FF30B1A
:0E0FF200F62FFB2FB22FB22F00288301A32F62
:02400E0018FF99
:00000001FF
