:020000040000FA
:02000000FE2FD1
:100EFE00F501F030F0007008831603138605872F76
:100F0E00F30130307302031C8D2F8E2F902FB92FCB
:100F1E00B92F0130F000750A962F0310F00DFF3E29
:100F2E00031D942F70088312031386000130F00006
:100F3E007008F5070330F0007008F5054130F10038
:100F4E00EE30F000F00BA92FF10BA92F00000130AD
:100F5E00F0007008F30730307302031CB72FB82F60
:100F6E00902FB92F0630F2001330F100AD30F000A3
:100F7E00F00BBF2FF10BBF2FF20BBF2FC62FF401BB
:100F8E0030307402031CCC2FCD2FCF2F872F872FFD
:100F9E00750AF0000830F1000030F200D92F720D02
:100FAE00F20CF10CF00BD62F71088312031386008E
:100FBE000130F0007008F5070330F0007008F505F9
:100FCE004130F100EE30F000F00BEB2FF10BEB2F78
:100FDE0000000130F0007008F40730307402031C7A
:100FEE00F92FFA2FCF2F872F872F872F00288301D6
:020FFE007F2F43
:02400E0041FF70
:00000001FF
