:020000040000FA
:020000000A28CC
:10000800FE00030EFA000A08FB0071280B28FC0109
:1000180083019C28F601F31F122813281B28F209D4
:10002800F309F20A0319F30AF601F60A1B28F11F6D
:100038001E281F282528F009F109F00A0319F10ADA
:1000480025287008710403192A282B286028F5012F
:10005800F50A3A2801300310F00DF10DFF3E031D9B
:100068002F280130F4007408F5073A28F11F3D28BD
:100078003E282E284028402871087302031D462870
:1000880070087202031C49284A2851287008F20295
:100098007108031CF303F302512801300310F10C1B
:1000A800F00CFF3E031D52280130F502031D5D28A8
:1000B8005E28402860286028760803196428652887
:1000C8006B28F209F309F20A0319F30A6B2873087B
:1000D800F1007208F00070280800831203130C1D49
:1000E8007628772884280130F7007708FC070A303B
:1000F8007C06031D802881288428403086068428B1
:100108000C110A30F0000030F1007C08F700F8010B
:100118007708F2007808F3000E207008F9007908D3
:10012800FC007B088A007A0E8300FE0E7E0E090012
:100138008316031306138312031306138E018F010C
:100148001012901290101014C33096005030950081
:1001580017149714171197158B170B17831603137A
:060168000C15B5280A2861
:02400E0041FF70
:00000001FF
